:100000000C9446000C9458000C9458000C94580022
:100010000C9458000C9458000C9458000C94580000
:100020000C9458000C9458000C9458000C945800F0
:100030000C9458000C9458000C9458000C945800E0
:100040000C9458000C9458000C9458000C945800D0
:100050000C9458000C9458000C9458000C945800C0
:100060000C9458000C9458000C9458000C945800B0
:100070000C9458000C9458000C94F9010C945800FE
:100080000C942D020C9458000C94580011241FBE9F
:10009000CFEFD0E1DEBFCDBF21E0A0E0B1E001C0F5
:1000A0001D92A130B207E1F70E94CF010C948202A9
:1000B0000C9400001798E2E6F0E080818D7F808349
:1000C00080818460808380818860808382E08A95DB
:1000D000F1F700C091B18081877F808382E08A95AB
:1000E000F1F700C080818860808382E08A95F1F713
:1000F00000C08081877F808382E08A95F1F700C00D
:1001000099230CF3E2E6F0E080818B7F8083179ADD
:100110000895CF93C82F0E945A00E2E6F0E0808154
:100120008D7F808380818B7F80838081877F8083A8
:1001300083B18F7083B983B19C2F907F892B83B952
:1001400080818860808335E03A95F1F700008081F6
:10015000877F808385E08A95F1F7000083B18F70F7
:1001600083B923B130E1C39FC0011124822B83B92D
:1001700080818860808385E08A95F1F70000808126
:10018000877F808335E03A95F1F70000CF9108959D
:10019000CF93C82F82B1806F82B9E1E6F0E0808111
:1001A0008E608083E2E6F0E080818B7F80838081B7
:1001B0008D7F808380E283B980818860808385E041
:1001C0008A95F1F700008081877F808385E08A959A
:1001D000F1F7000080818860808385E08A95F1F7DF
:1001E00000008081877F808385E08A95F1F7000099
:1001F00080818860808385E08A95F1F700008081A6
:10020000877F808385E08A95F1F70000613081F077
:1002100028F06230B9F06330F9F027C080E20E9424
:10022000890080E20E94890080E20E9489001DC04E
:1002300084E20E94890084E20E94890084E20E9494
:10024000890013C088E20E94890088E20E94890028
:1002500088E20E94890009C08CE20E9489008CE239
:100260000E9489008CE20E94890082E00E9489003D
:1002700081E00E948900C13051F028F0C23059F06D
:10028000C33069F00FC08CE00E9489000BC08EE083
:100290000E94890007C08DE00E94890003C08FE0A2
:1002A0000E948900CF910895CF93C82F0E945A00D1
:1002B000E2E6F0E080818260808380818B7F8083B2
:1002C0008081877F808383B18F7083B983B19C2FB6
:1002D000907F892B83B980818860808335E03A954F
:1002E000F1F700008081877F808385E08A95F1F7B0
:1002F000000083B18F7083B923B130E1C39FC00187
:100300001124822B83B980818860808385E08A955F
:10031000F1F700008081877F808335E03A95F1F71F
:100320000000CF910895823010F08250605F90E419
:10033000899F90011124862F8068822B0E9489005A
:10034000089583E390E00E9468020E94EE0162E05B
:1003500080E00E94C8000895CF93C82F82958F70C7
:10036000282F30E02A30310524F4805D0E945401AA
:1003700003C0895C0E9454018C2F8F70282F30E0BD
:100380002A30310524F4805D0E94540103C0895C49
:100390000E94540180E20E945401CF9108950E946E
:1003A000A10160E080E00E94930110E0C4E0809130
:1003B00000010E9454010E947E02D82F0E94560222
:1003C0008D2F0E94AC01C15091F71F5F143009F4CA
:1003D00010E060E0812F0E949301E8CF87B3806F27
:1003E00087BB81B3886F81BB8A98A79A129A789449
:1003F00008951F920F920FB60F9211242F933F93DF
:100400004F935F936F937F938F939F93AF93BF931C
:10041000CF93DF93EF93FF93CCE9D0E088810E94E4
:100420007A02888180930001FF91EF91DF91CF9153
:10043000BF91AF919F918F917F916F915F914F91FC
:100440003F912F910F900FBE0F901F901895AF9A6C
:100450001A9A0895AF981A9808951F920F920FB69E
:100460000F9211242F933F934F935F936F937F933A
:100470008F939F93AF93BF93EF93FF93EAE9F0E0DD
:1004800080818F7B80830E942A02FF91EF91BF9130
:10049000AF919F918F917F916F915F914F913F911C
:1004A0002F910F900FBE0F901F901895CF93C82FCC
:1004B0000E942702C0939C00EBE9F0E0808185FF59
:1004C000FDCFEAE9F0E0808180648083CF910895D8
:1004D0009093900089B928E12AB92EE020939500E5
:1004E000909398008093990088E980939A002093D4
:1004F0009D0008955D9BFECF8CB908955F9BFECF54
:080500008CB10895F894FFCFBF
:00000001FF
