S0120000537A616B646F676175432E7372656326
S11300000C9452000C946F000C946F000C946F00CD
S11300100C946F000C946F000C946F000C946F00A0
S11300200C946F000C946F000C946F000C946F0090
S11300300C946F000C946F000C946F000C944605A4
S11300400C946F000C946F000C946F000C946F0070
S11300500C946F000C946F000C946F000C946F0060
S11300600C946F000C946F000C946F000C946F0050
S11300700C946F000C946F000C94EB0E0C946F00B6
S11300800C946F000C946F000C946F007D04860434
S11300908F049804A104AA04B304BC04C504CE04C8
S11300A0D704E00411241FBECFEFD0E1DEBFCDBFE3
S11300B012E0A0E0B1E0E2E2F0E202C005900D92AD
S11300C0AA3FB107D9F723E0AAEFB2E001C01D921D
S11300D0A535B207E1F70E94DE0E0C940F100C94C4
S11300E00000CF93DF93CDB7DEB72C970FB6F8940B
S11300F0DEBF0FBECDBF9CE0E0E0F1E0DE01119673
S113010001900D929A95E1F7813059F028F08230F0
S113011069F0833081F013C085B38078885F85BB34
S11301200EC085B38078805F85BB09C085B38078B5
S1130130805E85BB04C085B38078805C85BB85E325
S11301408A95F1F7000023B32F778981281751F09E
S1130150FE01329681E09191291729F08F5F8C304E
S1130160D1F701C080E02C960FB6F894DEBF0FBE25
S1130170CDBFDF91CF9108951798E2E6F0E080813A
S11301808D7F808380818460808380818860808388
S113019082E08A95F1F700C091B18081877F8083E6
S11301A082E08A95F1F700C080818860808382E0D4
S11301B08A95F1F700C08081877F808382E08A95E9
S11301C0F1F700C099230CF3E2E6F0E080818B7F25
S11301D08083179A0895CF93C82F0E94BC00E2E64B
S11301E0F0E080818D7F808380818B7F808380811C
S11301F0877F808383B18F7083B983B19C2F907F75
S1130200892B83B980818860808335E03A95F1F742
S113021000008081877F808385E08A95F1F7000064
S113022083B18F7083B923B130E1C39FC00111241E
S1130230822B83B980818860808385E08A95F1F779
S113024000008081877F808335E03A95F1F70000D4
S1130250CF910895CF93C82F82B1806F82B9E1E620
S1130260F0E080818E608083E2E6F0E080818B7F25
S1130270808380818D7F808380E283B980818860E0
S1130280808385E08A95F1F700008081877F8083F1
S113029085E08A95F1F7000080818860808385E09D
S11302A08A95F1F700008081877F808385E08A95B5
S11302B0F1F7000080818860808385E08A95F1F7FA
S11302C000008081877F808385E08A95F1F70000B4
S11302D0613081F028F06230B9F06330F9F027C062
S11302E080E20E94EB0080E20E94EB0080E20E9428
S11302F0EB001DC084E20E94EB0084E20E94EB004C
S113030084E20E94EB0013C088E20E94EB0088E2C2
S11303100E94EB0088E20E94EB0009C08CE20E947C
S1130320EB008CE20E94EB008CE20E94EB0082E086
S11303300E94EB0081E00E94EB00C13051F028F0F4
S1130340C23059F0C33069F00FC08CE00E94EB005A
S11303500BC08EE00E94EB0007C08DE00E94EB0012
S113036003C08FE00E94EB00CF910895CF93C82F74
S11303700E94BC00E2E6F0E080818260808380819C
S11303808B7F80838081877F808383B18F7083B9E3
S113039083B19C2F907F892B83B98081886080836F
S11303A035E03A95F1F700008081877F808385E00E
S11303B08A95F1F7000083B18F7083B923B130E1DE
S11303C0C39FC0011124822B83B9808188608083FC
S11303D085E08A95F1F700008081877F808335E08E
S11303E03A95F1F70000CF910895CF93DF93EC0194
S11303F08881882331F021960E94B6018991811168
S1130400FBCFDF91CF910895823010F08250605F6E
S113041090E4899F90011124862F8068822B0E948A
S1130420EB000895E199FECF9FBB8EBB6DBBE29AB2
S1130430E19A0895E199FECF9FBB8EBBE09A8DB3FC
S113044008952F923F924F925F926F927F928F9274
S11304509F92AF92BF92CF92DF92EF92FF920F934F
S11304601F93CF93DF9305E113E00F2EF4E62F2EB5
S1130470312CF02DC0E0D0E0812C912C54018394D8
S1130480F80180829182A282B382CE010E941A0274
S1130490C82ECE0101960E941A02D12CE12CF12C17
S11304A0FC2CEE24DD24CC2490E0A0E0B0E0DC01C0
S11304B09927882726013701480E591E6A1E7B1E7C
S11304C0CE0102960E941A02C82ED12CE12CF12CE6
S11304D0FE2CED2CDC2CCC24C40CD51CE61CF71C07
S11304E0CE0103960E941A02C80ED11CE11CF11C15
S11304F0F801C482D582E682F782C1010E941A0201
S113050090E0A0E0B0E0F80180879187A287B387EC
S1130510C1018C599F4F0E941A0290E0A0E0B0E004
S1130520F80184879587A687B787FFEF8F1A9F0AFC
S1130530AF0ABF0A005F1F4F24968FEF281A380AAC
S1130540C031D10509F09CCFDF91CF911F910F915C
S1130550FF90EF90DF90CF90BF90AF909F908F90DF
S11305607F906F905F904F903F902F90089562E03E
S113057080E00E942A0183E390E00E94BD0F0E9464
S1130580E40E84B3886784BB1092640081B3806FE7
S113059081BB8FEF8ABB8BBB12BA83B78F6083BFDB
S11305A082EC81BF87B7826087BF789408950F93E8
S11305B01F9390E1899FF0011124EB5FFC4F0481AC
S11305C0158126813781041715072607370749F453
S11305D0EFE0F3E0808386E0818381E0828380E042
S11305E007C0EFE0F3E0808386E08183128281E03C
S11305F01F910F91089580E00E9471008C30D9F70B
S113060081E00E9471008C30B1F782E00E94710099
S11306108C3089F783E00E9471008C3061F7089573
S11306202F923F924F925F926F927F928F929F92FE
S1130630AF92BF92CF92DF92EF92FF920F931F93EC
S1130640CF93DF93CDB7DEB729970FB6F894DEBF0B
S11306500FBECDBFF82E6B83342E2A8381E084171E
S1130660D0F4812C912C54018394880C991CAA1CDD
S1130670BB1CB501A401440F551F661F771F440F0F
S1130680551F661F771F840E951EA61EB71E8F5F0B
S11306903812EBCF04C0812C912C54018394332065
S11306A091F09B81930DEB81E9839C8369818F2D6C
S11306B00E94040280E20E94B601F981FF5FF9837F
S11306C08C81F813F3CF412C512C3201212CEB8077
S11306D0E30CCB80CA948C829D82AE82BF82398225
S11306E0188690E0998789850E9471008A3060F5A8
S11306F0C301B201A50194010E94C80FDC01CB0122
S1130700880F991FAA1FBB1F2C013D01440C551CC7
S1130710661C771C440C551C661C771C480E591E1D
S11307206A1E7B1E89850E947100480E511C611C43
S1130730711C0E94FB0260E083E00E9404028CE0D2
S113074091E00E94F501239489850E9471008A300A
S1130750E9F40E94FB0260E083E00E9404028CE062
S113076091E00E94F501E981EE2309F468C0FB8160
S1130770F88768858F2D0E94040280E20E94B601EA
S113078098859F5F9887E912F4CF8AC0FA81FF2386
S113079039F0222009F459C0898181113CC055C027
S11307A09981911106C051C0212C412C512C612CEE
S11307B0712CEB813C80DD800E811F81E887688588
S11307C08F2D0E940402C301B201232D3D2D402F21
S11307D0512F0E94C80FCA01B9012AE030E040E05D
S11307E050E00E94C80F80E3860F0E94B601632D7B
S11307F07D2D802F912F2AE030E040E050E00E94D0
S1130800C80F322ED32E042F152F88858F5F88872B
S11308108E11D5CF1AC0E981EC0D1E2D1219E8876F
S113082068858F2D0E9404028AE20E94B6018885A1
S1130830181759F081508887C812F2CF06C0412C8E
S1130840512C612C712C212C00C089850E947100CF
S11308508B3039F40E94FB02642D752D862D972D63
S113086029C0F985FF5FF987F43009F03CCFE3E64E
S1130870F0E08081813061F480910D03811108C022
S113088081E080930D036FEF7FEF8FEF9FEF12C036
S1130890E3E6F0E08081811123CF10920D0320CF95
S11308A0FA81FF2309F480CF412C512C612C712C47
S11308B0212CCBCF29960FB6F894DEBF0FBECDBF47
S11308C0DF91CF911F910F91FF90EF90DF90CF9028
S11308D0BF90AF909F908F907F906F905F904F905C
S11308E03F902F90089590E08C30910508F080C0DF
S11308F0FC01EA5BFF4F0C94E70F60E083E00E9489
S113090004028DE191E00E94F501089560E083E026
S11309100E9404028EE291E00E94F501089560E0D5
S113092083E00E9404028FE391E00E94F5010895A0
S113093060E083E00E94040280E591E00E94F501FA
S1130940089560E083E00E94040281E691E00E9441
S1130950F501089560E083E00E94040282E791E0DB
S11309600E94F501089560E083E00E94040283E898
S113097091E00E94F501089560E083E00E94040282
S113098084E991E00E94F501089560E083E00E940B
S1130990040285EA91E00E94F501089560E083E095
S11309A00E94040286EB91E00E94F501089560E044
S11309B083E00E94040287EC91E00E94F50108950F
S11309C060E080E00E9404028CE091E00E94F50166
S11309D060E081E00E9404028CE091E00E94F50155
S11309E060E082E00E9404028CE091E00E94F50144
S11309F00895CF92DF92EF92FF92CF93DF936B0132
S1130A007C01423069F1433099F14130C1F5C22F84
S1130A10D0E02197CC0FDD1FCC0FDD1F6F2D992760
S1130A2067FD9095792F892FCE010E941202B7019C
S1130A30992777FD9095892FCE0101960E94120285
S1130A409927F7FC9A958F2D7E2D6D2DCE01029658
S1130A500E9412026C2DCE0103960E9412020FC056
S1130A60822F90E06C2D8D599F4F0E94120207C077
S1130A70822F90E06C2D89539F4F0E941202DF91C8
S1130A80CF91FF90EF90DF90CF9008951F920F9237
S1130A900FB60F9211248F929F92AF92BF92CF9272
S1130AA0DF92EF92FF920F931F932F933F934F93F5
S1130AB05F936F937F938F939F93AF93BF93EF93C2
S1130AC0FF93CF93DF9300D0CDB7DEB705E113E0FA
S1130AD00F2EFAEFEF2EF2E0FF2EF02DDD24D3944B
S1130AE0F80184859585A685B785BC01CD01615043
S1130AF0710981099109633071058105910558F4E3
S1130B00F701208131812F5F3F4F318320832032D1
S1130B103C4189F404C0F701118210820CC0F80131
S1130B2064877587868797872D2D43E00E94F90493
S1130B30F70111821082D394005F1F4FF2E0EF0E91
S1130B40F11C35E0D312CCCF80910E03882341F001
S1130B50EAEFF2E0208531852F5F3F4F3187208710
S1130B60209102033091030320323C4139F4815037
S1130B7080930E03109203031092020380910403E6
S1130B80853559F480910503813009F035C480918D
S1130B900B038A3A09F030C410C3833359F48091AB
S1130BA00503813009F028C4809106038C3C09F0C8
S1130BB023C41BC0813159F480910503813009F0AD
S1130BC01BC480910B038E3E09F016C432C08232DE
S1130BD009F012C480910503813009F00DC480919D
S1130BE00C038D3D09F008C40FC220910F0321119D
S1130BF008C080911003811104C0809111038823DF
S1130C0061F0EFE0F3E08281982F990F990F990F2B
S1130C108181892B89832A8302C019821A82CE0199
S1130C2001960E947E0FEFE0F3E01082118212829F
S1130C30DBC3209107038FEF820F843008F0DAC101
S1130C40822F90E0DC011197FD01E295F295F07F8F
S1130C50FE27E07FFE27EB5EFC4F448555856685C5
S1130C607785433051056105710530F045305105F4
S1130C706105710509F0B4C130910603313009F4FE
S1130C80A7C020F0323009F453C1AEC3E4E0F3E06E
S1130C90C580D12CE12CF12C88249C2CAD2CBE2CAD
S1130CA0C680D12CE12CF12C7601DD24CC24C80C97
S1130CB0D91CEA1CFB1C3481C30ED11CE11CF11CA1
S1130CC0FD01E295F295F07FFE27E07FFE27EB5EC3
S1130CD0FC4F84809580A680B780C814D904EA04A8
S1130CE0FB0409F047C0CD0182959295907F982727
S1130CF0807F9827FC01EB5EFC4F148615861686D0
S1130D00178643E060E070E0CB010E94F90404E040
S1130D1013E0F801238130E1239FF0011124EB5FFC
S1130D20FC4F108611861286138642E060E070E064
S1130D30CB010E94F904F8018381823061F018F438
S1130D40813031F00DC0833041F0843041F008C06F
S1130D50979A1BBA05C0969A03C0959A01C0949AB3
S1130D6080E88983809107038A83CE0101960E94DB
S1130D707E0F3AC3453051056105710541F488E998
S1130D8089832A83CE0101960E947E0F2DC3CB0155
S1130D90BA016F5F7F4F8F4F9F4FAD0142955295C0
S1130DA0507F5427407F5427FA01EB5EFC4F648741
S1130DB075878687978743E00E94F90488E88983CA
S1130DC0809107038A83CE0101960E947E0F0CC393
S1130DD0E4E0F3E0C580D12CE12CF12C88249C2C98
S1130DE0AD2CBE2CC680D12CE12CF12C7601DD2457
S1130DF0CC24C80CD91CEA1CFB1C3481C30ED11CA6
S1130E00E11CF11CFD01E295F295F07FFE27E07FE5
S1130E10FE27EB5EFC4F84809580A680B780C814C3
S1130E20D904EA04FB0409F055C0CD0182959295DA
S1130E30907F9827807F9827FC01EB5EFC4F1486F7
S1130E4015861686178643E060E070E0CB010E94A9
S1130E50F90404E013E0F801238130E1239FF00159
S1130E601124EB5FFC4F81E090E0A0E0B0E08087CC
S1130E709187A287B38742E061E070E080E090E070
S1130E800E94F904F8018381823079F018F48130EA
S1130E9031F016C0833069F0843079F011C082B328
S1130EA0807782BB8FEF8BBB0BC082B3807B82BB0E
S1130EB007C082B3807D82BB03C082B3807E82BBC5
S1130EC081E88983809107038A83CE0101960E9479
S1130ED07E0F8AC2453051056105710541F489E9E7
S1130EE089832A83CE0101960E947E0F7DC2CB01A5
S1130EF0BA016F5F7F4F8F4F9F4FAD01429552955F
S1130F00507F5427407F5427FA01EB5EFC4F6487DF
S1130F1075878687978743E00E94F90489E8898367
S1130F20809107038A83CE0101960E947E0F5CC2E2
S1130F30453051056105710509F04AC004E013E02C
S1130F40F801C580D12CE12CF12CFE2CED2CDC2CED
S1130F50CC24468150E060E070E0BA015527442774
S1130F60C40ED51EE61EF71E3481C701B601630FF9
S1130F70711D811D911DAD0142955295507F5427DD
S1130F80407F5427FA01EB5EFC4F648375838683AC
S1130F90978341E00E94F904F801238130E1239F03
S1130FA0F0011124EB5FFC4F148615861686178614
S1130FB043E060E070E0CB010E94F90482E8898399
S1130FC0F80183818A83CE0101960E947E0F0CC2B0
S1130FD080E989832A83CE0101960E947E0F04C290
S1130FE080910603806989832A83CE0101960E9439
S1130FF07E0FFAC180910603886889832A83CE0113
S113100001960E947E0FF0C1209106038FEF820F9C
S1131010843008F0CAC0822F90E0DC011197FD01F2
S1131020E295F295F07FFE27E07FFE27EB5EFC4F12
S1131030448555856685778543305105610571057D
S113104008F09EC0E4E0F3E03581C480D12CE12CAB
S1131050F12CFE2CED2CDC2CCC24E3814601570131
S11310608E0E911CA11CB11C832F8F70C82ED12C05
S1131070E12CF12C7601DD24CC24C80CD91CEA1C0B
S1131080FB1CFD01E295F295F07FFE27E07FFE2731
S1131090EB5EFC4F84809580A680B780C814D90489
S11310A0EA04FB0409F04BC004E013E0F8014681B4
S11310B050E060E070E0440F551F661F771F440F37
S11310C0551F661F771F440F551F661F771F440F58
S11310D0551F661F771F32953F70430F511D611DC9
S11310E0711DC780D12CE12CF12C0B2EBCE0CC0C53
S11310F0DD1CEE1CFF1CBA95D1F7B02DCB01BA0153
S11311006C0D7D1D8E1D9F1DAD0142955295507F26
S11311105427407F5427FA01EB5EFC4F64837583A8
S11311208683978341E00E94F9048BE88983F80160
S113113082818A83CE0101960E947E0F55C1CB0124
S1131140BA016F5F7F4F8F4F9F4FAD01429552950C
S1131150507F5427407F5427FA01EB5EFC4F64878D
S113116075878687978743E00E94F9048BE8898313
S1131170809106038A83CE0101960E947E0F34C1BA
S1131180453051056105710541F48BE989832A8352
S1131190CE0101960E947E0F27C183E989832A83A9
S11311A0CE0101960E947E0F1FC18BE889832A839A
S11311B0CE0101960E947E0F17C1209107038FEF85
S11311C0820F843008F007C190910603892F87703D
S11311D0853009F45BC0863009F4A8C0843009F076
S11311E003C1E4E0F3E0458150E060E070E0CC242A
S11311F0D42EE52EF62E468150E060E070E0BA0170
S1131200552744274C0D5D1D6E1D7F1D8481480F9D
S1131210511D611D711D892F86958695869590E0D7
S1131220A0E0B0E0B82FAA2799278827480F591FB4
S11312306A1F7B1F4F3F504E654F7540F9F430E1F4
S1131240239FF0011124EB5FFC4F84E090E0A0E0C9
S1131250B0E084879587A687B78743E064E070E0B1
S113126080E090E00E94F90484E889838091070378
S11312708A83CE0101960E947E0FB6C08CE88983D2
S11312802A83CE0101960E947E0FAEC0E4E0F3E013
S1131290458150E060E070E0CC24D42EE52EF62E9B
S11312A0468150E060E070E0BA01552744274C0DB8
S11312B05D1D6E1D7F1D8481480F511D611D711DB3
S11312C0892F86958695869590E0A0E0B0E0B82FAA
S11312D0AA2799278827480F591F6A1F7B1F4F3F4A
S11312E0504E654F7540D1F490E1299FF0011124CF
S11312F0EB5FFC4F148615861686178643E060E084
S113130070E0CB010E94F90485E88983809107038A
S11313108A83CE0101960E947E0F66C08DE8898380
S11313202A83CE0101960E947E0F5EC0E4E0F3E0C2
S1131330458150E060E070E0CC24D42EE52EF62EFA
S1131340468150E060E070E0BA01552744274C0D17
S11313505D1D6E1D7F1D8481480F511D611D711D12
S1131360892F86958695869590E0A0E0B0E0B82F09
S1131370AA2799278827840F951FA61FB71F8F3F79
S1131380904EA54FB540F9F430E1239FF0011124AC
S1131390EB5FFC4F85E090E0A0E0B0E084879587A8
S11313A0A687B78743E065E070E080E090E00E94A4
S11313B0F90486E88983809107038A83CE01019624
S11313C00E947E0F11C08EE889832A83CE01019684
S11313D00E947E0F09C080910603886889832A834E
S11313E0CE0101960E947E0FE4E0F3E08DE093E0ED
S11313F01192E817F907E1F70F900F90DF91CF9161
S1131400FF91EF91BF91AF919F918F917F916F91D8
S11314105F914F913F912F911F910F91FF90EF900A
S1131420DF90CF90BF90AF909F908F900F900FBEA2
S11314300F901F901895CF93C82F80E1C89FF0019B
S11314401124EB5FFC4F10861186128613862C2F15
S113145042E060E070E0CB010E94F904C23061F028
S113146018F4C13031F00DC0C33041F0C43041F044
S113147008C0979A1BBA05C0969A03C0959A01C0F2
S1131480949AEFE0F3E0C083118281E082838BE0E1
S11314900E94730485E00E947304E3E6F0E09091F7
S11314A00D038081813029F4911103C080930D03D1
S11314B006C080818111F5CF10920D03F0CFCF913A
S11314C00895CF93C82F80E1C89FF0011124EB5FEA
S11314D0FC4F81E090E0A0E0B0E080879187A28794
S11314E0B3872C2F42E061E070E080E090E00E943E
S11314F0F904C23079F018F4C13031F016C0C330A9
S113150069F0C43079F011C082B3807782BB8FEF69
S11315108BBB0BC082B3807B82BB07C082B3807D50
S113152082BB03C082B3807E82BBEFE0F3E0C08362
S113153081E0818382838BE00E94730486E00E94B1
S11315407304E3E6F0E090910D038081813029F487
S1131550911103C080930D0306C080818111F5CFE2
S113156010920D03F0CFCF910895CF93C82F60E070
S113157080E00E94040288ED91E00E94F50160E0A1
S113158081E00E9404028CE091E00E94F50160E099
S113159082E00E9404028CE091E00E94F50160E088
S11315A083E00E9404028CE091E00E94F50120E0B7
S11315B046E068E080E00E9410036F3F2FEF72075F
S11315C08207920751F120E1C29FF0011124EB5FE1
S11315D0FC4F64837583868397832C2F41E00E949C
S11315E0F904EFE0F3E0C08382E0818381E0828349
S11315F087E00E947304E3E6F0E090910D0380819C
S1131600813029F4911103C080930D0306C08081B9
S11316108111F5CF10920D03F0CFCF9108951F9350
S1131620CF93DF93182FEFE0F3E0808386E081838C
S113163081E08283C3E6D0E060E080E00E9404029F
S113164089EE91E00E94F50160E081E00E940402CD
S11316508AEF91E00E94F50160E082E00E940402BA
S11316608BE092E00E94F50160E083E00E940402B6
S11316708CE192E00E94F50180910D03811128C054
S113168088818430B1F018F48130D1F021C08830E1
S113169049F08031E9F481E080930D03812F0E94A9
S11316A01B0A16C081E080930D03812F0E94610AFA
S11316B00FC081E080930D03812F0E94B50A08C0FA
S11316C0EFE0F3E0108387E0818381E0828306C04A
S11316D088818111B1CF10920D03AECFDF91CF91EC
S11316E01F910895BF92CF92DF92EF92FF920F93D2
S11316F01F93CF93DF9360E080E00E9404028DE2A9
S113170092E00E94F50160E081E00E9404028EE311
S113171092E00E94F50160E082E00E9404028CE005
S113172091E00E94F50160E083E00E9404028CE0F5
S113173091E00E94F501C3E6D0E020E041E06FE0D3
S113174080E00E941003862F6F3F09F4F2C0B62E8A
S11317506150643040F080E00E94730488818130DD
S113176009F0E1C0D8C0C82F880FDD0B7E0121E04D
S1131770E21AF108C70182959295907F9827807F9D
S113178098278C010F5D1C4FC3E6D0E060E080E039
S11317900E94040280E20E94B6016701F801808180
S11317A09181A281B3810597A105B10509F046C0D5
S11317B060E081E00E9404028FE492E00E94F5015F
S11317C020E046E069E081E00E9410036F3FFFEFF4
S11317D07F078F079F0709F4ACC0E701C295D29534
S11317E0D07FDC27C07FDC27CB5EDC4F6C837D831E
S11317F08E839F832B2D41E00E94F9041C861D8655
S11318001E861F862B2D43E060E070E0CB010E9412
S1131810F90481E00E947304E3E6F0E090910D0383
S11318208081813029F4911103C080930D0381C01C
S113183080818111F5CF10920D03F0CF60E081E03B
S11318400E94040280E692E00E94F50113C082E047
S11318500E9473048881813041F480910D038111C9
S113186004C081E080930D0364C08881811102C0AB
S113187010920D03F80180819181A281B3810397B5
S1131880A109B1090297A105B10508F321E046E0D9
S113189066E081E00E941003AB01BC014F3FFFEF03
S11318A05F076F077F0709F444C08B2D0E94D7029E
S11318B08130B9F484E00E947304F801808191813D
S11318C0A281B381BC01CD016F5F7F4F8F4F9F4FCA
S11318D060837183828393832B2D43E00E94F904F8
S11318E055CF811153CFF601E295F295F07FFE2793
S11318F0E07FFE27EB5EFC4F14861586168617865E
S11319002B2D43E060E070E0CB010E94F9048B2DA5
S11319100E940F0B0EC080910D03811104C081E061
S113192080930D0306C08881811107CF10920D03A7
S113193004CFDF91CF911F910F91FF90EF90DF9033
S1131940CF90BF900895CF9360E080E00E9404029E
S113195081E792E00E94F50160E081E00E940402C8
S11319608CE091E00E94F50160E082E00E940402B4
S11319708CE091E00E94F50160E083E00E940402A3
S11319808CE091E00E94F50120E041E06EE080E00F
S11319900E941003E62F6F3FD1F1C62F61506430CF
S11319A020F080E00E947304EFCF80E1E802F001B0
S11319B01124EB5FFC4F84E090E0A0E0B0E084876A
S11319C09587A687B7872C2F43E064E070E080E01A
S11319D090E00E94F904EFE0F3E0C08383E08183A8
S11319E081E0828388E00E947304E3E6F0E0909152
S11319F00D038081813029F4911103C080930D037C
S1131A0006C080818111F5CF10920D03F0CFCF91E4
S1131A100895CF9360E080E00E94040281E792E0A1
S1131A200E94F50160E081E00E9404028CE091E0F4
S1131A300E94F50160E082E00E9404028CE091E0E3
S1131A400E94F50160E083E00E9404028CE091E0D2
S1131A500E94F50120E041E06EE080E00E94100366
S1131A60E62F6F3FA9F1C62F6150643020F080E06B
S1131A700E947304EFCF80E1E802F0011124EB5FD0
S1131A80FC4F14861586168617862C2F43E060E0DB
S1131A9070E0CB010E94F904EFE0F3E0C08384E03E
S1131AA0818381E0828389E00E947304E3E6F0E0AD
S1131AB090910D038081813029F4911103C08093AA
S1131AC00D0306C080818111F5CF10920D03F0CF74
S1131AD0CF910895CF9360E080E00E94040281E7F3
S1131AE092E00E94F50160E081E00E9404028CE033
S1131AF091E00E94F50160E082E00E9404028CE023
S1131B0091E00E94F50160E083E00E9404028CE011
S1131B1091E00E94F50120E041E06EE080E00E9447
S1131B201003E62F6F3FD1F1C62F6150643020F0CF
S1131B3080E00E947304EFCF80E1E802F0011124F9
S1131B40EB5FFC4F85E090E0A0E0B0E084879587F0
S1131B50A687B7872C2F43E065E070E080E090E033
S1131B600E94F904EFE0F3E0C08385E0818381E023
S1131B7082838AE00E947304E3E6F0E090910D030F
S1131B808081813029F4911103C080930D0306C034
S1131B9080818111F5CF10920D03F0CFCF9108957C
S1131BA0CF93DF93EFE0F3E0108286E0818381E05E
S1131BB08283C3E6D0E060E080E00E94040282E811
S1131BC092E00E94F50160E081E00E94040283E952
S1131BD092E00E94F50160E082E00E94040284EA3F
S1131BE092E00E94F50160E083E00E9404028CE12F
S1131BF092E00E94F50180910D03811125C0888136
S1131C008430A1F018F48130B9F01EC0883041F05E
S1131C108031D1F481E080930D030E94A30C14C0A1
S1131C2081E080930D030E94090D0EC081E0809332
S1131C300D030E946A0D08C0EFE0F3E0108287E014
S1131C40818381E0828306C088818111B4CF1092A0
S1131C500D03B1CFDF91CF910895FF920F931F939E
S1131C60CF93DF9360E080E00E94040285EB92E072
S1131C700E94F50160E081E00E9404028CE091E0A2
S1131C800E94F50160E082E00E9404028CE091E091
S1131C900E94F50160E083E00E9404028CE091E080
S1131CA00E94F501CFE0D3E00F2EF6E0FF2EF02DD9
S1131CB003E610E015C083E00E947304F8018081FC
S1131CC0813041F480910D03811104C081E080933F
S1131CD00D032CC0F8018081811102C010920D0304
S1131CE080910E03833039F321E048E065E080E021
S1131CF00E9410036F3FFFEF7F078F079F07B1F02C
S1131D006F3F704E854F954029F410920E030E9448
S1131D10D00D0CC01882F9821A8280E00E947304EC
S1131D2080910E038F5F80930E03DACFDF91CF9102
S1131D301F910F91FF900895C3E6D0E060E080E02A
S1131D400E94040286EC92E00E94F50160E081E0CA
S1131D500E9404028CE091E00E94F50160E082E0C0
S1131D600E94040287ED92E00E94F50160E083E0A6
S1131D700E94040288EE92E00E94F501888180317D
S1131D8049F480910D03811117C081E080930D0304
S1131D900E94720B8881883049F480910D0381116F
S1131DA005C081E080930D030E942D0E888181116E
S1131DB0C5CF10920D03C2CF8881F8CF0E942102B3
S1131DC00E94B7020E949C0E8B9A8A98A798129838
S1131DD0A79A129A08951F920F920FB60F92112488
S1131DE08F939F93EF93FF9387B78D7F87BF8091E6
S1131DF09C00809312039091130391111BC08232B3
S1131E0069F018F4813131F015C0833359F0853508
S1131E1069F010C091E09093130317C092E090937F
S1131E20130325C093E09093130333C094E090937D
S1131E30130341C09230D9F018F4913031F04CC002
S1131E40933039F19430B9F147C090911403E92FDC
S1131E50F0E0EC5FFC4F80839F5F983019F0909323
S1131E6014033AC0109214031092130335C09091D6
S1131E701403E92FF0E0EC5FFC4F80839F5F9930FF
S1131E8019F09093140328C01092140310921303B2
S1131E9023C090911403E92FF0E0EC5FFC4F8083A2
S1131EA09F5F933019F09093140316C0109214039B
S1131EB01092130311C090911403E92FF0E0EC5F2A
S1131EC0FC4F80839F5F983019F09093140304C0F3
S1131ED0109214031092130387B7826087BFFF9197
S1131EE0EF919F918F910F900FBE0F901F901895B7
S1131EF0AF9A1A9A0895AF981A980895CF93DF93DA
S1131F00EC01EAE9F0E080818F7780830E94780F0A
S1131F10EBE9F0E0808185FFFDCF84E480939C00B1
S1131F20EBE9F0E0808185FFFDCF888180939C0000
S1131F30EBE9F0E0808185FFFDCF898180939C00EF
S1131F40EBE9F0E0808185FFFDCF8BEB80939C0073
S1131F50EBE9F0E0808185FFFDCF8FE99FE00197F9
S1131F60F1F700C000000E947B0FEAE9F0E08081F5
S1131F7080688083DF91CF91089590939800809337
S1131F80990088E980939A008EE080939D000895DB
S1131F90052E97FB1EF400940E94DF0F57FD07D017
S1131FA00E94ED0F07FC03D04EF40C94DF0F509504
S1131FB04095309521953F4F4F4F5F4F0895909531
S1131FC08095709561957F4F8F4F9F4F0895EE0FC9
S1131FD0FF1F0590F491E02D0994A1E21A2EAA1B8B
S1131FE0BB1BFD010DC0AA1FBB1FEE1FFF1FA217C5
S1131FF0B307E407F50720F0A21BB30BE40BF50BC2
S1132000661F771F881F991F1A9469F7609570954A
S1132010809590959B01AC01BD01CF010895F89482
S1052020FFCFEC
S1132022450E0D0B1615132625234643202020208A
S11320322020202020202020202020200048696207
S1132042617320737A616D212020202020004B6F60
S11320526420656C666F6761647661212020005A92
S113206261726F6C7420737A656B72656E7921008C
S1132072417A2061646D696E207A61726F6C742199
S1132082004869626173206B6F6421202020202044
S11320922000537A656B72656E79206E7969747665
S11320A2612100537A656B72656E79207A6172766A
S11320B2612120004B6F64206D6F646F73697476C5
S11320C2612120200053696B65726573207A617205
S11320D26F6C617321005A61726F6C617320746F4B
S11320E2726F6C7665210046656C737A6162616415
S11320F26974766121202000556A206B6F643A204E
S113210220202020202020200047313A204E7969C7
S11321127461732020202020200047323A205A6123
S1132122726173202020202020200047333A204B64
S11321326F64206D6F646F736974200047353A20B1
S11321424B696C657065732020202020003E537A11
S1132152656B72656E79737A616D3A202000204B4B
S11321626F643A2020202020202020202020003EBE
S1132172556A206B6F643A20202020202020200002
S11321823E4B6F643A202020202020202020202053
S113219200537A656B72656E79737A616D3A2020A9
S11321A2200047313A205A61726F6C6173202020FB
S11321B220200047323A2046656C6F6C64617320BC
S11321C22020200047333A2046656C737A616261AD
S11321D264697420004B6F643A2020202020202060
S11321E220202020200042656C6570657320202029
S11321F22020202020200047313A2046656C686167
S1132202737A6E616C6F200047323A2041646D69C3
S10D22126E20202020202020000070
S9030000FC
